:100000000C9465000C948D000C948D000C942F02C0
:100010000C942F020C942F020C948D000C948D00E4
:100020000C948D000C948D000C948D000C948D001C
:100030000C948D000C948D000C948D000C948D000C
:100040000C94B1050C948D000C9481080C94B308A9
:100050000C948D000C948D000C948D000C948D00EC
:100060000C9484040C948D00000000080002010030
:100070000003040700000000000000000102040863
:100080001020408001020408102001020408102002
:10009000040404040404040402020202020203032E
:1000A00003030303000000002300260029000000D2
:1000B0000000250028002B0000000000240027007D
:1000C0002A00C4005704E308CB0011241FBECFEF61
:1000D000D8E0DEBFCDBF11E0A0E0B1E0E2E1F4E1A5
:1000E00002C005900D92A635B107D9F723E0A6E529
:1000F000B1E001C01D92AE31B207E1F710E0C8ECEB
:10010000D0E004C02297FE010E94F809C23CD1074A
:10011000C9F70E947D090C94FC090C94000040E092
:1001200052EC61E070E086E591E00E94320366E106
:1001300071E086E591E00E946A0960E071E086E581
:1001400091E00E946A0926E040E052EC61E070E034
:1001500081E892E00E94250861E089E00E94AA06F9
:1001600061E08AE00E94AA0661E088E00E94AA0697
:1001700061E085E00E94AA0661E081E10E94AA0692
:1001800061E080E10C94AA0620E046E067E086E5A5
:1001900091E00C94020386E591E00C94A90261E0E1
:1001A00089E00E94E30668EE73E080E090E00E9440
:1001B0001E0660E089E00E94E30661E08AE00E949A
:1001C000E30668EE73E080E090E00E941E0660E0C7
:1001D0008AE00E94E30661E088E00E94E30668EEA0
:1001E00073E080E090E00E941E0660E088E00E94DC
:1001F000E30683E00E9419070197C9F483E00E9497
:1002000019070197D9F361E089E00E94E3066AE0EB
:1002100070E080E090E00E941E0660E089E00E94AD
:10022000E30662E171E081E892E00E94640981E8FE
:1002300092E00E944207892B49F081E892E00E94F7
:100240005B07682F86E591E00E945D0186E591E0FD
:100250000E94C901892B79F086E591E00E943C015A
:10026000E0918102F09182020190F081E02D682FEF
:1002700081E892E0099408952091B7013091B80186
:1002800028173907B9F49091750180917601981774
:1002900089F0E0917501F0E0E958FE4F80812091EE
:1002A000750130E02F5F3F4F2F7333272093750187
:1002B00090E008958FEF9FEF08951F93CF93DF9302
:1002C000DC015C968D919C915D97009749F481E0EB
:1002D00090E013969C938E93129780E090E03BC041
:1002E0005196ED91FC91529750962C915097322F48
:1002F00030951FB75E964C915E9741FB772770F95A
:1003000041FD6095F8944081772311F0422B01C0A4
:1003100043234083EC012197F1F748E0508160FFCF
:1003200002C0522B01C053235083EC012197F1F7F7
:100330006695415099F78081772311F0832301C09E
:10034000822B80831FBF5C968D919C915D97019756
:10035000F1F781E090E0DF91CF911F910895209116
:10036000B7013091B8012817390781F490917501D0
:1003700080917601981751F0E0917501F0E0E9580D
:10038000FE4F8081992787FD909508958FEF9FEF0D
:1003900008952091B7013091B8012817390771F4F9
:1003A000809176012091750190E0805C9F4F821BC7
:1003B000910960E470E00E948D09089580E090E06A
:1003C00008952091B7013091B8012817390739F401
:1003D0008FB7F89410927601109275018FBF08952F
:1003E000E091B701F091B801E817F90769F4A38922
:1003F000B4899C918589809589238C931092B8014A
:100400001092B70181E0089580E00895CF93DF93C3
:10041000EC018A8D9B8D892BF1F08091B701909131
:10042000B8018C179D07B9F0009711F00E94F001F8
:100430008E8D8E7F8E8F1092760110927501D093E3
:10044000B801C093B701EB89FC8980819D89892B14
:10045000808381E001C080E0DF91CF9108951F92F9
:100460000F920FB60F9211242F933F934F935F93E8
:100470006F937F938F939F93AF93BF93EF93FF936C
:10048000E091B701F091B801309709F451C0868D21
:10049000A685B785958581FF04C08C91892329F4B1
:1004A00047C08C91892309F043C0A389B4899C91EA
:1004B0008589809589238C93868997890197F1F79F
:1004C000208D318DA685B785758558E040E0C9013E
:1004D0000197F1F7842F90E095958795482F6C91BF
:1004E000672309F04068515091F7868D81FD409552
:1004F0008091760190E001968F7399272091750184
:10050000281749F0A0917601B0E0A958BE4F4C934E
:100510008093760103C0868D8160868F828D938D56
:100520000197F1F7A389B4898C919589892B8C93D4
:10053000FF91EF91BF91AF919F918F917F916F91BB
:100540005F914F913F912F910F900FBE0F901F9091
:1005500018952BE131E0FC01318320830C94F001EC
:100560001F93CF93DF93EC01162F6E8D669561700C
:1005700081E06827812F0E94E30661E0812F0E94BD
:10058000AA06812F90E0FC01E458FF4FE491E88B2C
:10059000FC01E057FF4FE491F0E0EE0FFF1FE25542
:1005A000FF4F859194919A8B898BDF91CF911F9109
:1005B00008951F93CF93DF93EC01162F60E0812FF6
:1005C0000E94AA068E8D81FD04C061E0812F0E94E9
:1005D000E3061C87812F90E0FC01E458FF4FE49173
:1005E000ED87FC01E057FF4FE491F0E0EE0FFF1FB5
:1005F000EC55FF4F859194919F878E87DF91CF9126
:100600001F910895FF920F931F93CF93DF93EC01F7
:10061000F62E522F1B821A8208EE13E020E030E003
:100620000C831D832E833F838BE191E09983888324
:100630001F8A1E8A198E188E1B8E1A8E1D8E1C8E76
:100640008E8D8E7F50FB81F98E8F642FCE010E949C
:10065000B0026F2DCE01DF91CF911F910F91FF90CE
:100660000C94D902CF93DF93EC019A01AB011B8E5E
:100670001A8E198E188E1F8A1E8A60E874E88EE121
:1006800090E00E94C309C9012430310520F0B9016E
:100690006350710902C061E070E07D8F6C8FEC8562
:1006A000E63108F068C0B901769567956431710547
:1006B00018F06351710902C061E070E07F8B6E8BAE
:1006C000069718F0C901059702C081E090E0998F64
:1006D000888FC901880F991F820F931F9695879560
:1006E000969587958D30910510F00C9702C081E0AA
:1006F00090E09B8F8A8F20916800E83050F091E065
:10070000EE3008F490E081E001C0880F9A95EAF796
:1007100001C084E0822B809368002C85283038F05B
:100720002E3040F0263148F48CE690E008C08DE68B
:1007300090E005C08BE690E002C080E090E09C8BEA
:100740008B8B283030F481E001C0880F2A95EAF7BE
:100750000DC0822F90E02E3010F4089701C00E9744
:1007600091E001C0990F8A95EAF7892F8D8B8C8DC6
:100770009D8D0197F1F7CE01DF91CF910C94060288
:100780008091E80190E02091E901821B9109089590
:100790002091E9018091E801281750F4E22FF0E060
:1007A000E651FE4F808190E02F5F2093E90108958C
:1007B0008FEF9FEF0895E091E9018091E801E8173C
:1007C00030F4F0E0E651FE4F808190E008958FEF25
:1007D0009FEF08950895CF92DF92EF92FF920F93CB
:1007E0001F93CF93DF937C01CB018A012091C50138
:1007F000222389F0EB016B01C40ED51ECC15DD055B
:1008000069F06991D701ED91FC910190F081E02DA3
:10081000C7010995F3CF642F0E945B04C801DF91E3
:10082000CF911F910F91FF90EF90DF90CF9008959F
:10083000CF93DF931F92CDB7DEB769832091C501B7
:100840002223D1F02091C601203240F021E030E097
:10085000FC013383228380E090E015C08091C701C2
:10086000E82FF0E0E853FE4F998190838F5F8093EB
:10087000C7018093C60105C061E0CE0101960E94C8
:100880005B0481E090E00F90DF91CF910895FC012F
:100890001382128248EE53E060E070E04483558397
:1008A000668377838BE291E091838083089589EB5F
:1008B00091E00C944704613298F42091770224303F
:1008C00089F460932C02FC018EE292E0DC012A2F75
:1008D000281B261718F421912D93F9CF80E0089555
:1008E00081E0089582E0089585ED8093BC008091B9
:1008F000BC0084FDFCCF10927702089585EC8093B4
:10090000BC001092770208951F920F920FB60F92BB
:1009100011242F933F934F935F936F937F938F9304
:100920009F93AF93BF93EF93FF938091B900887F1C
:10093000803609F49EC078F5883209F45DC090F4E1
:10094000803109F456C038F4882309F4F5C08830A2
:1009500009F44FC0F5C0883109F44EC0803209F463
:100960005FC0EEC0803409F46AC058F4803309F4E3
:1009700057C0883309F0E4C080930A020E947E04C5
:10098000DFC0803509F44FC0883509F45DC0883474
:1009900009F0D6C0D3C0883909F4C4C0A8F4883798
:1009A00009F467C038F4883609F463C0803709F465
:1009B00060C0C6C0883809F4B5C0803909F45FC08A
:1009C000803809F0BDC05BC0803B09F483C038F4B7
:1009D000803A09F466C0883A09F47CC0B1C0803C12
:1009E00009F4A4C0883C09F4A1C0883B09F487C07D
:1009F000A7C08091760210C090914F0280914E0264
:100A0000981770F5E0914F0281E08E0F80934F02AE
:100A1000F0E0E05BFD4F80818093BB0085EC83C0FC
:100A200080930A028BC0E0914F0281E08E0F809389
:100A30004F028091BB00F0E0E05BFD4F808390911E
:100A40004F0280914E026BC0E0914F0281E08E0F09
:100A500080934F028091BB00F0E0E05BFD4F80830C
:100A60008091750281116AC081E08093740284EAEA
:100A70005EC083E08093770210920B02CFCF80910B
:100A80000B02803208F04EC0E0910B0281E08E0F25
:100A900080930B028091BB00F0E0E45FFD4F808308
:100AA000BDCF0E947E0480910B02803230F4E09131
:100AB0000B02F0E0E45FFD4F108260910B0270E0EA
:100AC000E0917002F09171028CE092E00995109231
:100AD0000B0236C084E08093770210922D021092B0
:100AE0002C02E0917202F0917302099580912C0220
:100AF000811105C081E080932C0210922E02E091BA
:100B00002D0281E08E0F80932D02F0E0E25DFD4F1B
:100B100080818093BB0090912D0280912C029817C8
:100B200008F47CCF85E88093BC000AC085EC8093F4
:100B3000BC001092770204C010920A020E94740452
:100B4000FF91EF91BF91AF919F918F917F916F91A5
:100B50005F914F913F912F910F900FBE0F901F907B
:100B600018951F920F920FB60F9211242F933F9357
:100B70008F939F93AF93BF938091790290917A0264
:100B8000A0917B02B0917C023091780226E0230F85
:100B90002D3720F40296A11DB11D05C029E8230FB1
:100BA0000396A11DB11D2093780280937902909342
:100BB0007A02A0937B02B0937C0280917D02909197
:100BC0007E02A0917F02B09180020196A11DB11D0D
:100BD00080937D0290937E02A0937F02B093800267
:100BE000BF91AF919F918F913F912F910F900FBE29
:100BF0000F901F9018953FB7F89480917D029091C7
:100C00007E02A0917F02B091800226B5A89B05C00C
:100C10002F3F19F00196A11DB11D3FBF6627782F08
:100C2000892F9A2F620F711D811D911D43E0660F60
:100C3000771F881F991F4A95D1F70895CF92DF92A9
:100C4000EF92FF92CF93DF936B017C010E94FB0533
:100C5000EB01C114D104E104F10489F00E948C0974
:100C60000E94FB056C1B7D0B683E734090F381E096
:100C7000C81AD108E108F108C851DC4FEACFDF916A
:100C8000CF91FF90EF90DF90CF900895789484B546
:100C9000826084BD84B5816084BD85B5826085BD78
:100CA00085B5816085BDEEE6F0E08081816080835E
:100CB000E1E8F0E010828081826080838081816041
:100CC0008083E0E8F0E0808181608083E1EBF0E008
:100CD000808184608083E0EBF0E0808181608083AC
:100CE000EAE7F0E080818460808380818260808395
:100CF00080818E7F80838081806880831092C10094
:100D00000895833081F028F4813099F08230A1F089
:100D100008958730A9F08830B9F08430D1F48091FB
:100D200080008F7D03C0809180008F77809380004A
:100D3000089584B58F7702C084B58F7D84BD0895F2
:100D40008091B0008F7703C08091B0008F7D809339
:100D5000B0000895CF93DF9390E0FC01E458FF4F7B
:100D60002491FC01E057FF4F8491882349F190E0E2
:100D7000880F991FFC01E854FF4FA591B49182554B
:100D80009F4FFC01C591D4919FB7611108C0F894A1
:100D90008C91209582238C93888182230AC06230B3
:100DA00051F4F8948C91322F309583238C93888161
:100DB000822B888304C0F8948C91822B8C939FBFE4
:100DC000DF91CF9108950F931F93CF93DF931F92DD
:100DD000CDB7DEB7282F30E0F901E859FF4F8491F5
:100DE000F901E458FF4F1491F901E057FF4F0491C6
:100DF0000023C9F0882321F069830E94810669815C
:100E0000E02FF0E0EE0FFF1FE255FF4FA591B491E8
:100E10009FB7F8948C91611103C01095812301C094
:100E2000812B8C939FBF0F90DF91CF911F910F91DA
:100E30000895CF93DF93282F30E0F901E859FF4F51
:100E40008491F901E458FF4FD491F901E057FF4F25
:100E5000C491CC2391F081110E948106EC2FF0E027
:100E6000EE0FFF1FEC55FF4FA591B4912C912D2350
:100E700081E090E021F480E002C080E090E0DF912A
:100E8000CF910895FC01818D228D90E0805C9F4F71
:100E9000821B91098F7399270895FC01918D828D92
:100EA000981731F0828DE80FF11D858D90E008953F
:100EB0008FEF9FEF0895FC01918D828D981761F05F
:100EC000828DDF01A80FB11D5D968C91928D9F5F81
:100ED0009F73928F90E008958FEF9FEF089589EDB3
:100EE00098E0892B49F080E090E0892B29F00E945E
:100EF000D90881110C9400000895FC01848DDF0154
:100F0000A80FB11DA35ABF4F2C91848D90E001967C
:100F10008F739927848FA689B7892C93A089B1896B
:100F20008C9180648C93938D848D981306C0028875
:100F3000F389E02D80818F7D80830895CF93DF93A7
:100F4000EC01888D8823C9F0EA89FB89808185FDC1
:100F500005C0A889B9898C9186FD0FC00FB607FC22
:100F6000F5CF808185FFF2CFA889B9898C9185FF63
:100F7000EDCFCE010E947D07E7CFDF91CF9108959D
:100F8000CF92DF92FF920F931F93CF93DF931F9225
:100F9000CDB7DEB76C0181E0D60158968C93589797
:100FA0005B969C915B975C968C915C97981307C0BD
:100FB0005096ED91FC915197808185FD2EC0F601F0
:100FC000038D10E00F5F1F4F0F731127F02EF601F6
:100FD000848DF81211C00FB607FCF9CFD6015096D8
:100FE000ED91FC915197808185FFF1CFC601698316
:100FF0000E947D076981EBCF838DE80FF11DE35AD5
:10100000FF4F6083D6015B960C935B975296ED91F0
:10101000FC915397808180620CC0D6015696ED9169
:10102000FC91579760835096ED91FC915197808188
:101030008064808381E090E00F90DF91CF911F91D9
:101040000F91FF90DF90CF900895BF92CF92DF92E3
:10105000EF92FF92CF93DF93EC016A017B01B22EF6
:1010600060E874E88EE190E0A70196010E94A10972
:1010700021503109410951095695479537952795D2
:10108000E889F98982E08083211580E1380798F0AA
:10109000E889F989108260E472E48FE090E0A701AA
:1010A00096010E94A1092150310941095109569523
:1010B000479537952795EC85FD853083EE85FF852F
:1010C0002083188EEC89FD89B082EA89FB898081B2
:1010D00080618083EA89FB89808188608083EA89D6
:1010E000FB89808180688083EA89FB8980818F7D8C
:1010F0008083DF91CF91FF90EF90DF90CF90BF90F2
:1011000008951F920F920FB60F9211242F938F9371
:101110009F93EF93FF93E0919102F091920280816F
:10112000E0919702F091980282FD12C09081809127
:101130009A028F5F8F7320919B02821751F0E0918A
:101140009A02F0E0EF57FD4F958F80939A0201C00D
:101150008081FF91EF919F918F912F910F900FBE02
:101160000F901F9018951F920F920FB60F92112497
:101170002F933F934F935F936F937F938F939F939F
:10118000AF93BF93EF93FF9381E892E00E947D07B6
:10119000FF91EF91BF91AF919F918F917F916F914F
:1011A0005F914F913F912F910F900FBE0F901F9025
:1011B000189581E892E00E94420721E0892B09F40A
:1011C00020E0822F0895109284021092830288EE0C
:1011D00093E0A0E0B0E08093850290938602A09314
:1011E0008702B09388028BE391E090938202809310
:1011F000810285EC90E090938E0280938D0284ECC6
:1012000090E09093900280938F0280EC90E0909316
:1012100092028093910281EC90E0909394028093EB
:10122000930282EC90E0909396028093950286EC74
:1012300090E0909398028093970210929A021092F5
:101240009B0210929C0210929D020895CF92DF9211
:10125000EF92FF920F931F93CF93DF937C016A016C
:10126000EB0100E010E00C151D0571F06991D7014C
:10127000ED91FC910190F081E02DC7010995892B3A
:1012800019F00F5F1F4FEFCFC801DF91CF911F9172
:101290000F91FF90EF90DF90CF9008956115710549
:1012A00081F0DB010D900020E9F7AD0141505109BB
:1012B000461B570BDC01ED91FC910280F381E02D80
:1012C000099480E090E008950C944E0964E171E087
:1012D0000C944E090F931F93CF93DF93EC010E9460
:1012E0004E098C01CE010E946609800F911FDF918B
:1012F000CF911F910F91089508950E9446060E9474
:101300007C090E948F00CFE6D7E00E94CF00209793
:10131000E1F30E946F07F9CF089597FB072E16F4AB
:10132000009407D077FD09D00E94E20907FC05D0A0
:101330003EF4909581959F4F0895709561957F4FEC
:101340000895A1E21A2EAA1BBB1BFD010DC0AA1F06
:10135000BB1FEE1FFF1FA217B307E407F50720F01E
:10136000A21BB30BE40BF50B661F771F881F991F99
:101370001A9469F760957095809590959B01AC01E2
:10138000BD01CF010895052E97FB1EF400940E9425
:10139000DA0957FD07D00E94A10907FC03D04EF4DB
:1013A0000C94DA0950954095309521953F4F4F4F59
:1013B0005F4F089590958095709561957F4F8F4F01
:1013C0009F4F0895AA1BBB1B51E107C0AA1FBB1F5B
:1013D000A617B70710F0A61BB70B881F991F5A95C1
:1013E000A9F780959095BC01CD010895EE0FFF1FE0
:1013F0000590F491E02D099410E0C8ECD0E004C011
:10140000FE010E94F8092296CA3CD107C9F7F89458
:02141000FFCF0C
:1014120053797374656D20426F6F74202D3E204F97
:101422004B0041540D0A00000000005D012609C96D
:10143200013C01AF01E101000000001804EB03C010
:1014420003C803DB03EA0300000000C007260942C9
:10145200075B074D079E076E616E00696E66006F3F
:061462007666002E00007A
:00000001FF
