:100000000C9463000C948B000C948B000C94730480
:100010000C9473040C9473040C948B000C948B005C
:100020000C948B000C948B000C948B000C948B0024
:100030000C948B000C948B000C948B000C948B0014
:100040000C9429040C948B000C9490010C946A017C
:100050000C948B000C948B000C948B000C948B00F4
:100060000C9403050C948B00000000002400270072
:100070002A0000000008000201000003040700003D
:1000800000000000000000000000250028002B00F8
:1000900000000000230026002900040404040404D6
:1000A0000404020202020202030303030303010227
:1000B00004081020408001020408102001020408F6
:1000C0001020560D4C0D11241FBECFEFD8E0DEBF1F
:1000D000CDBF23E0A4EBB1E001C01D92AD3CB2075F
:1000E000E1F711E0A0E0B1E0E2EAF1E202C0059040
:1000F0000D92A43BB107D9F710E0C2E6D0E004C0EE
:100100002197FE010E94B910C136D107C9F70E949C
:100110000A090C94C4100C940000FC01538D448D0A
:10012000252F30E0842F90E0821B930B541710F0A2
:10013000CF96089501970895FC01918D828D9817AF
:1001400061F0828DDF01A80FB11D5D968C91928DBB
:100150009F5F9F73928F90E008958FEF9FEF0895B8
:10016000FC01918D828D981731F0828DE80FF11D81
:10017000858D90E008958FEF9FEF0895FC01918D9C
:10018000228D892F90E0805C9F4F821B91098F7395
:10019000992708958DEB92E00E94BE0021E0892B03
:1001A00009F420E0822F0895FC01848DDF01A80F5F
:1001B000B11DA35ABF4F2C91848D90E001968F738F
:1001C0009927848FA689B7892C93A089B1898C91AE
:1001D00080648C93938D848D981306C00288F38974
:1001E000E02D80818F7D80830895EF92FF920F93A1
:1001F0001F93CF93DF93EC0181E0888F9B8D8C8DD3
:10020000981305C0E889F989808185FD24C0F62E00
:100210000B8D10E00F5F1F4F0F731127E02E8C8D99
:10022000E8120CC00FB607FCFACFE889F989808183
:1002300085FFF5CFCE010E94D400F1CF8B8DFE015A
:10024000E80FF11DE35AFF4FF0820B8FEA89FB891B
:100250008081806207C0EE89FF896083E889F9891F
:1002600080818064808381E090E0DF91CF911F9155
:100270000F91FF90EF900895CF93DF93EC01888D5D
:100280008823C9F0EA89FB89808185FD05C0A8899A
:10029000B9898C9186FD0FC00FB607FCF5CF808120
:1002A00085FFF2CFA889B9898C9185FFEDCFCE016A
:1002B0000E94D400E7CFDF91CF91089580E090E0D5
:1002C000892B29F00E94CA0081110C940000089526
:1002D0000E94BF101F920F920FB60F9211242F93FE
:1002E0003F934F935F936F937F938F939F93AF93BE
:1002F000BF93EF93FF938DEB92E00E94D400FF91A8
:10030000EF91BF91AF919F918F917F916F915F918D
:100310004F913F912F910F900FBE0F901F90189506
:100320001F920F920FB60F9211242F938F939F93CA
:10033000EF93FF93E091CD02F091CE028081E091A6
:10034000D302F091D40282FD12C090818091D60236
:100350008F5F8F732091D702821751F0E091D60200
:10036000F0E0E354FD4F958F8093D60201C0808169
:10037000FF91EF919F918F912F910F900FBE0F9052
:100380001F9018951F93CF93DF93282F30E0F9012A
:10039000EE58FF4F8491F901E255FF4FD491F901D6
:1003A000E656FF4FC491CC23C9F0162F81110E944D
:1003B0007E03EC2FF0E0EE0FFF1FEA57FF4FA591F1
:1003C000B4918FB7F894111105C09C91ED2FE09571
:1003D000E92302C0EC91ED2BEC938FBFDF91CF911D
:1003E0001F9108953FB7F89480916E0290916F022B
:1003F000A0917002B091710226B5A89B05C02F3F55
:1004000019F00196A11DB11D3FBFBA2FA92F982F3A
:100410008827820F911DA11DB11DBC01CD0142E0B5
:10042000660F771F881F991F4A95D1F7089520916D
:10043000B6013091B7012817390771F49091B401D2
:100440008091B501981741F0E091B401F0E0E75DCB
:10045000FD4F808190E008958FEF9FEF08950895FC
:100460001F93CF93DF93DC015C962D913C915D97B8
:100470002115310539F481E090E013969C938E9319
:1004800012973DC05196ED91FC91529750969C91D8
:100490005097892F80951FB75E964C915E9741FBD0
:1004A000772770F941FD6095F8944081772311F02A
:1004B000492B01C048234083E9012197F1F748E027
:1004C000508160FF02C0592B01C058235083E901BD
:1004D0002197F1F76695415099F7772321F09081A4
:1004E0008923808303C08081982B90831FBF5C96F3
:1004F0008D919C915D970197F1F721E030E0C90162
:10050000DF91CF911F9108952091B6013091B701ED
:100510002817390771F48091B5012091B40190E05A
:10052000805C9F4F821B910960E470E00E949110F3
:10053000089580E090E008952091B6013091B701D0
:1005400028173907B9F49091B4018091B501981733
:1005500089F0E091B401F0E0E75DFD4F80812091EA
:10056000B40130E02F5F3F4F2F7333272093B40146
:1005700090E008958FEF9FEF089585ED8093BC0084
:100580008091BC0084FDFCCF1092980208954091A8
:100590000402262F30E0240F311D21323105DCF416
:1005A000209198022430C9F4FC0180E090E0861785
:1005B00058F4309104022191DC01AE51BE4FA30FDB
:1005C000B11D2C930196F3CF80910402680F6093C4
:1005D000040280E0089581E0089582E0089508957E
:1005E000E091B9018091B801E81730F4F0E0EE53E2
:1005F000FE4F808190E008958FEF9FEF08959091D6
:10060000B9018091B801981750F4E92FF0E0EE534A
:10061000FE4F208130E09F5F9093B90102C02FEF21
:100620003FEFC90108958091B80190E02091B90190
:10063000821B91090895CF92DF92EF92FF920F9360
:100640001F93CF93DF937C01262F972F8A018091F0
:100650009902882391F0C62FD72F6E01C40ED51EA4
:10066000CC15DD0571F06991D701ED91FC910190F8
:10067000F081E02DC7010995F3CF642F822F0E94EE
:10068000C702C801DF91CF911F910F91FF90EF90AA
:10069000DF90CF900895CF93DF931F92CDB7DEB751
:1006A0006983209199022223D1F02091BC0220324B
:1006B00040F021E030E0FC013383228380E090E0D1
:1006C00015C080919A02E82FF0E0E556FD4F998120
:1006D00090838F5F80939A028093BC0205C061E093
:1006E000CE0101960E94C70281E090E00F90DF9159
:1006F000CF910895089580E090E00895833081F0CF
:1007000028F4813099F08230A1F008958730A9F063
:100710008830B9F08430D1F4809180008F7D03C09F
:10072000809180008F7780938000089584B58F77C3
:1007300002C084B58F7D84BD08958091B0008F770D
:1007400003C08091B0008F7D8093B0000895CF9357
:10075000DF9390E0FC01E255FF4F2491FC01E65647
:10076000FF4F8491882361F190E0880F991FFC016D
:10077000E859FF4FC591D491FC01EA57FF4FA5916D
:10078000B491611109C09FB7F894888120958223A4
:100790008883EC912E230BC0623061F49FB7F894EC
:1007A0003881822F809583238883EC912E2B2C9384
:1007B0009FBF06C08FB7F894E8812E2B28838FBF88
:1007C000DF91CF9108958F929F92AF92BF92CF9277
:1007D000DF92EF92FF926B017C010E94F2014B01CC
:1007E0005C01C114D104E104F104F1F00E94F201B2
:1007F000DC01CB0188199909AA09BB09883E9340FD
:10080000A105B10570F321E0C21AD108E108F10891
:1008100088EE880E83E0981EA11CB11CC114D1047F
:10082000E104F10419F7DDCFFF90EF90DF90CF9056
:10083000BF90AF909F908F9008952FB7F8946091DC
:100840006A0270916B0280916C0290916D022FBFD1
:1008500008951F920F920FB60F9211242F933F937A
:100860008F939F93AF93BF9380916A0290916B0295
:10087000A0916C02B0916D023091690223E0230FC8
:100880002D3720F40196A11DB11D05C026E8230FC8
:100890000296A11DB11D2093690280936A02909374
:1008A0006B02A0936C02B0936D0280916E029091E6
:1008B0006F02A0917002B09171020196A11DB11D4D
:1008C00080936E0290936F02A0937002B0937102B6
:1008D000BF91AF919F918F913F912F910F900FBE3C
:1008E0000F901F9018951F920F920FB60F92112420
:1008F0002F933F934F935F936F937F938F939F9328
:10090000AF93BF93EF93FF93E091B601F091B701DE
:10091000309709F451C0968DA685B785858591FFDE
:1009200004C09C91892329F447C09C91892309F034
:1009300043C0A389B4899C918589809589238C9330
:10094000868997890197F1F7608D718DA685B785A6
:10095000558538E020E0CB010197F1F7822F90E038
:1009600095958795282F4C91452309F020683150A3
:1009700091F7868D81FD20958091B50190E00196DB
:100980008F7399273091B401381749F0A091B501C0
:10099000B0E0A75DBD4F2C938093B50103C0868D59
:1009A0008160868F828D938D0197F1F7A389B48939
:1009B0009C918589892B8C93FF91EF91BF91AF9189
:1009C0009F918F917F916F915F914F913F912F9167
:1009D0000F900FBE0F901F901895E091B601F09107
:1009E000B701E817F90769F4A389B4899C9185894F
:1009F000809589238C931092B7011092B60181E003
:100A0000089580E008951F920F920FB60F9211245F
:100A10002F933F934F935F936F937F938F939F9306
:100A2000AF93BF93EF93FF938091B900887F803697
:100A300009F49CC068F5883209F45BC090F48031F9
:100A400009F454C038F4882309F4F6C0883009F456
:100A50004DC0F6C0883109F44CC0803209F45DC045
:100A6000EFC0803409F468C048F4803309F455C0FD
:100A7000883309F0E5C080939602D8C0803509F428
:100A80004FC0883509F45DC0883409F0D9C0D6C09C
:100A9000883909F4C7C0A8F4883709F467C038F466
:100AA000883609F463C0803709F460C0C9C088384B
:100AB00009F4B8C0803909F45FC0803809F0C0C0BB
:100AC0005BC0803B09F486C038F4803A09F466C004
:100AD000883A09F47FC0B4C0803C09F4A7C0883CC0
:100AE00009F4A4C0883B09F48AC0AAC080917302AB
:100AF00010C09091950280919402981770F5E09142
:100B0000950281E08E0F80939502F0E0EC58FD4F46
:100B100080818093BB0085EC86C0809396028EC056
:100B2000E091950281E08E0F809395028091BB0049
:100B3000F0E0EC58FD4F80839091950280919402F3
:100B40006EC0E091950281E08E0F809395028091B6
:100B5000BB00F0E0EC58FD4F80838091970281113B
:100B60006DC081E08093720284EA61C083E080936B
:100B7000980210922802CFCF80912802803208F08C
:100B800051C0E091280281E08E0F8093280280916D
:100B9000BB00F0E0E85FFD4F8083BDCF85EC809324
:100BA000BC001092980280912802803230F4E091CB
:100BB0002802F0E0E85FFD4F10826091280270E0AB
:100BC000E0910602F091070288E092E00995109208
:100BD000280236C084E08093980210920502109299
:100BE0000402E0910202F09103020995809104024F
:100BF000811105C081E0809304021092E201E0912E
:100C0000050281E08E0F80930502F0E0EE51FE4F69
:100C100080818093BB009091050280910402981717
:100C200008F479CF85E88093BC000AC085EC8093F6
:100C3000BC001092980204C0109296020E94BD025D
:100C4000FF91EF91BF91AF919F918F917F916F91A4
:100C50005F914F913F912F910F900FBE0F901F907A
:100C60001895CF93C62F91E0909399029CE49093AE
:100C7000BB0210929A021092BC02682F82EA93E0A3
:100C80000E944B036C2F82EA93E00E944B0381E0A9
:100C9000CF910C94FF0691E0909399029CE490937D
:100CA000BB0210929A021092BC02682F82EA93E073
:100CB0000E944B0381E00E94FF06809198028111FF
:100CC000FCCF81E080939802809397029FEF9093EE
:100CD0009602109295021092940280937302809172
:100CE000730288698093730280917202813061F48B
:100CF00010927202809173028093BB008091BC00BD
:100D000083FDF8CF85EC01C085EE8093BC00809117
:100D100098028130E1F380919502811103C08091A6
:100D2000950201C081E0A4E7B2E022EC31E0F901D4
:100D30009E2F921B981718F49D919193F9CF1092C2
:100D4000B9018093B801882321F082EA93E00C94E2
:100D5000FF0280E090E00895CF92DF92EF92FF9241
:100D60000F931F93CF93DF936C017A018B01C0E047
:100D7000D0E0CE15DF0589F0D8016D918D01D60147
:100D8000ED91FC910190F081E02DC6010995892B30
:100D900011F47E0102C02196ECCFC701DF91CF9103
:100DA0001F910F91FF90EF90DF90CF900895EDEBA2
:100DB000F2E0A089B18982E08C93A485B5851C926C
:100DC000A685B7858FEC8C93108EA489B58986E0B3
:100DD0008C93A289B3898C9180618C93A289B38909
:100DE0008C9188608C93A289B3898C9180688C9354
:100DF0000288F389E02D80818F7D80830895382FCC
:100E00002091BC029091BB02213208F049C0809130
:100E100098028111FCCF42E04093980230939702F0
:100E20003FEF309396021092950220939402ABE923
:100E3000B2E044E752E0FA013E2F341B321718F4B7
:100E40003D913193F9CF1092730220917302990F63
:100E5000922B9093730290917202913061F41092F0
:100E60007202909173029093BB009091BC0093FD2D
:100E7000F8CF95EC01C095EE9093BC00909198024C
:100E80009230E1F3909196029F3F79F08091960223
:100E9000803241F080919602803331F084E005C0C9
:100EA00081E003C082E001C083E010929A021092B8
:100EB000BC02109299020895E091AE03F091AF0345
:100EC0000190F081E02D682F8EEA93E00994CF9392
:100ED000DF93E5E7F0E08491E1EBF0E0D491EDE918
:100EE000F0E0C491CC2391F081110E947E03EC2F9D
:100EF000F0E0EE0FFF1FE057FF4FA591B491EC918A
:100F0000ED2381E090E021F480E002C080E090E0F9
:100F1000DF91CF9108956115710579F0FB01019082
:100F20000020E9F73197AF01461B570BDC01ED912B
:100F3000FC910280F381E02D099480E090E0089517
:100F40004F925F926F927F92EF92FF920F931F9357
:100F5000CF93DF93CDB7DEB7A1970FB6F894DEBF7E
:100F60000FBECDBF7C01FA01CB0119A2223008F4DB
:100F70002AE08E010F5D1F4F422E512C612C712CE7
:100F8000BF01A30192010E94570FF901CA0101504C
:100F900011096A3014F4605D01C0695CD8016C937A
:100FA000232B242B252B61F7B801C7010E948B0747
:100FB000A1960FB6F894DEBF0FBECDBFDF91CF91E3
:100FC0001F910F91FF90EF907F906F905F904F90E7
:100FD00008958F929F92AF92BF92CF92DF92EF923D
:100FE000FF92CF93DF936B017C019B01AC010E94C8
:100FF0008C10882319F067EA71E027C04601570179
:10100000E894B7F82FEF3FEF4FE75FE7C501B40172
:101010000E948C1081110DC02FEF3FEF4FE75FE76B
:10102000C501B4010E94330E18161CF46BEA71E07E
:101030000CC02FEF3FEF4FE75FE4C701B6010E94FE
:101040008710181684F46FEA71E08EEA93E0DF915E
:10105000CF91FF90EF90DF90CF90BF90AF909F9097
:101060008F900C948B072FEF3FEF4FE75FECC7019A
:10107000B6010E94330E87FDE6CF20E030E0A901E3
:10108000C701B6010E94330E87FF09C08DE20E949E
:101090005C07EC01F7FAF094F7F8F09402C0C0E0B6
:1010A000D0E02AE037ED43EA5BE3C701B6010E94D6
:1010B0007A0F4B015C010E9458106B017C010E9469
:1010C000380E9B01AC01C501B4010E94790F4B01A0
:1010D0005C012AE0B701A6018EEA93E00E94A00716
:1010E000C80FD91F8EE20E945C07C80FD91F20E0ED
:1010F00030E040E251E4C501B4010E94990E4B0179
:101100005C010E9458106B01E12CF12C2AE0B70120
:10111000A6018EEA93E00E94A007C80FD91FC7015D
:10112000B6010E94380E9B01AC01C501B4010E94BA
:10113000790F20E030E040E251E40E94990E0E94D5
:101140005810AB0160E070E02AE08EEA93E00E9464
:10115000A0078C0F9D1FDF91CF91FF90EF90DF9044
:10116000CF90BF90AF909F908F9008950F931F9353
:10117000CF93DF9300D000D0CDB7DEB7AC01990F8D
:10118000660B770B77FF23C08DE249835A836B830D
:101190007C830E945C078C0149815A816B817C8130
:1011A00070956095509541955F4F6F4F7F4F2AE046
:1011B0008EEA93E00E94A007800F911F0F900F907E
:1011C0000F900F90DF91CF911F910F9108952AE01A
:1011D0008EEA93E00F900F900F900F90DF91CF91D8
:1011E0001F910F910C94A0070F931F93CF93DF9340
:1011F000EC010E948B078C0164EA71E0CE010E9431
:101200008B07800F911FDF91CF911F910F91089550
:101210000C948B07CF93DF9300D000D000D0CDB7D4
:10122000DEB7789484B5826084BD84B5816084BD66
:1012300085B5826085BD85B5816085BD80916E0074
:10124000816080936E0010928100809181008260A5
:1012500080938100809181008160809381008091E2
:1012600080008160809380008091B10084608093D1
:10127000B1008091B00081608093B00080917A00CD
:10128000846080937A0080917A00826080937A00F3
:1012900080917A00816080937A0080917A008068E2
:1012A00080937A001092C10010929E0310929F03C7
:1012B0001092A0031092A10310925C0310925D03A0
:1012C00010925E0310925F030E941D044B015C01AB
:1012D0006B017C0128EBC20E2BE0D21EE11CF11C3D
:1012E0000E941D04681579058A059B0528F0C6161D
:1012F000D706E806F906A0F78DEB92E090939D03E0
:1013000080939C030E94D7060E941D0460935C0397
:1013100070935D0380935E0390935F0367E371E0D6
:1013200080919C0390919D030E9408090E941D04D6
:101330004B015C016B017C013AE0C30ED11CE11C46
:10134000F11C0E941D04681579058A059B0528F08B
:10135000C616D706E806F906A0F781E08093700369
:101360001092C9031092C8031092C7031092C603CB
:101370001092C5031092C40382E490E09093CB03D3
:101380008093CA039091BA03963108F057C02FE0BA
:1013900030E03093C5032093C40320E430E0309361
:1013A000C7032093C60327E230E03093C90320939C
:1013B000C80320916800983050F031E09E3008F466
:1013C00030E081E001C0880F3A95EAF701C084E07F
:1013D000822B80936800983038F09E3040F0963130
:1013E00048F020E030E008C02DE630E005C02BE6F4
:1013F00030E002C02CE630E03093C2032093C103FA
:10140000983030F481E001C0880F9A95EAF70EC059
:10141000292F30E09E3018F42850310902C02E5098
:10142000310981E001C0880F2A95EAF78093C30350
:101430008091CA039091CB030197F1F78091C80383
:101440009091C903892B21F18091B6019091B70148
:1014500043E08E3A9407E1F0009711F00E94ED040A
:101460008091CC038E7F8093CC031092B5011092B3
:10147000B4018EEA93E09093B7018093B601E091B6
:10148000C103F091C20390818091C303892B8083B3
:1014900066EA71E08EEA93E00E94F40869E471E084
:1014A0008EEA93E00E94F4080E94D70661E089E08A
:1014B0000E94A70361E08AE00E94A70361E088E040
:1014C0000E94A70361E085E00E94A70361E081E13B
:1014D0000E94A70361E080E10E94A703109200012F
:1014E00060E08EE00E94A7031092B9011092B8014B
:1014F00010929A021092BC021092980281E080939E
:1015000097021092720261E082E10E94C20161E0E2
:1015100083E10E94C2018091B9008E7F8093B9005F
:101520008091B9008D7F8093B90088E48093B800E2
:1015300085E48093BC0088E98093B80060E087E090
:101540000E9431066AE088E00E94310662E080E293
:101550000E94310661E087E00E9431066BE571E090
:101560008EEA93E00E94F40861E089E00E94C201E3
:1015700064EF71E080E090E00E94E30360E089E0C6
:101580000E94C20161E08AE00E94C20164EF71E042
:1015900080E090E00E94E30360E08AE00E94C201E4
:1015A00061E088E00E94C20164EF71E080E090E0B9
:1015B0000E94E30360E088E00E94C20160E081E1F4
:1015C0000E94C20160E080E10E94C20161E085E00A
:1015D0000E94C20162E370E080E090E00E94E303B9
:1015E00060E085E00E94C20161E081E10E94C201E9
:1015F00061E080E10E94C2016AE070E080E090E07A
:101600000E94E30384EF882E99249394A12CB12C9B
:101610000E941D04672B682B692B41F40E941D0456
:10162000623071058105910508F412C10E941D0404
:101630006093BE017093BF018093C0019093C1017C
:10164000C090BA01D090BB01E090BC01F090BD0108
:101650006C157D058E059F0540F46093BA0170936B
:10166000BB018093BC019093BD01C090BA01D090A2
:10167000BB01E090BC01F090BD019B01AC012C19B5
:101680003D094E095F0969017A013AEFC316D10499
:10169000E104F10408F4DCC06093BA017093BB016B
:1016A0008093BC019093BD0180926803909269037E
:1016B000A0926A03B0926B0310926C0310926D03B8
:1016C00010926E0310926F038091600390916103FA
:1016D000A0916203B09163038093640390936503C8
:1016E000A0936603B09367030E941D046093600398
:1016F0007093610380936203909363030E941D04BF
:1017000060935C0370935D0380935E0390935F032B
:101710000E941D046B017C0160E771E080919C03D5
:1017200090919D030E9408092AE041E050E060E0AA
:1017300070E080919C0390919D030E94A00767E751
:1017400071E080919C0390919D030E9408092AE01A
:10175000B701A60180919C0390919D030E94A00770
:1017600069E771E080919C0390919D030E940809B4
:101770008091600390916103A0916203B091630333
:10178000B701A601481B590B6A0B7B0B2AE080911D
:101790009C0390919D030E94A00769E771E08091EE
:1017A0009C0390919D030E94080940916003509111
:1017B000610360916203709163038091640390916F
:1017C0006503A0916603B0916703481B590B6A0B30
:1017D0007B0B2AE080919C0390919D030E94A007BF
:1017E0006BE771E080919C0390919D030E94080932
:1017F0000E941D04AB01BC012AE080919C039091E2
:101800009D030E94A0076DE771E080919C03909179
:101810009D030E94F4080E941D041B012C016B0112
:101820007C0145E0C40ED11CE11CF11C0E941D048A
:10183000621573058405950508F027C10E941D04F3
:1018400060936003709361038093620390936303DA
:101850000E946707019709F0F7C00E946707019788
:10186000E1F361E089E00E94C20168EC70E080E091
:1018700090E00E94E30360E089E00E94C20161E021
:101880008AE00E94C20168EC70E080E090E00E9473
:10189000E30360E08AE00E94C20161E088E00E9408
:1018A000C20168EC70E080E090E00E94E30360E039
:1018B00088E00E94C2018EE00E944B06F82E8DE067
:1018C0000E944B067F2C612C6301C80ED91E80E15B
:1018D0000E944B06F82E8FE00E944B06FE821D826E
:1018E000ED80FE80E80EF91E82E10E944B06582E24
:1018F00081E10E944B06152D00E02801480E591E7B
:1019000064E871E08EEA93E00E940809C6010E9433
:10191000B60867E871E08EEA93E00E940809C70103
:101920000E94B6086CE871E08EEA93E00E94080914
:10193000A201550C660B770B77FF12C08DE249832D
:101940005A836B837C830E945C0749815A816B8137
:101950007C8170956095509541955F4F6F4F7F4F9B
:101960002AE08EEA93E00E94A00764EA71E08EEA22
:1019700093E00E948B078091000150E4859FC00195
:10198000112480937C0080917A00806480937A0097
:1019900080917A0086FDFCCF60917800809179007B
:1019A00070E0782B072E000C880B990B0E943A0EE2
:1019B00020E030E040E451E40E94990E20E030E065
:1019C00040E85AE30E94990E20E030E040E751E4FD
:1019D0000E94990E20E030E040E451E40E94E60FBE
:1019E00020E030E040E251E40E94E60F6B017C0110
:1019F00061E971E08EEA93E00E940809C701B6012F
:101A00000E94E90767E971E08EEA93E00E94080905
:101A100020E030E040EC5FE3C701B6010E94E60F32
:101A200020E030E048EC52E40E94990E0E94E90761
:101A30006CE971E08EEA93E00E94F4086EE971E0CF
:101A40008DEB92E00E9408098DEB92E00E94BE00AF
:101A5000892B49F08DEB92E00E949C00682F8EEA62
:101A600093E00E9430028EEA93E00E948402892B68
:101A700049F08EEA93E00E949C02682F8DEB92E081
:101A80000E94F5000E945E01C3CDC616D706E80687
:101A9000F90608F0CBCED2CE89E291E09093AF0365
:101AA0008093AE038EEA93E00C94ED041092C00292
:101AB0001092BF0288EE93E0A0E0B0E08093C102F4
:101AC0009093C202A093C302B093C40225E031E018
:101AD0003093BE022093BD0225EC30E03093CA0261
:101AE0002093C90224EC30E03093CC022093CB0247
:101AF00020EC30E03093CE022093CD0221EC30E098
:101B00003093D0022093CF0222EC30E03093D20207
:101B10002093D10226EC30E03093D4022093D302FC
:101B20001092D6021092D7021092D8021092D902C7
:101B3000109260031092610310926203109263038B
:101B4000109264031092650310926603109267036B
:101B5000109268031092690310926A0310926B034B
:101B600010926C0310926D0310926E0310926F032B
:101B70001092A5031092A4038093A6039093A70349
:101B8000A093A803B093A90327E131E03093A30306
:101B90002093A2031092B1031092B0038093B2037A
:101BA0009093B303A093B403B093B50389E291E09B
:101BB0009093AF038093AE031092C5031092C403B9
:101BC0001092C7031092C6031092C9031092C80363
:101BD0001092CB031092CA036091CC036E7F6D7F8D
:101BE0006093CC036695617081E0682786E00E946F
:101BF000C20161E086E00E94A703E4EBF0E0E4911B
:101C0000E093BE03E0EAF0E0E491F0E0EE0FFF1FA6
:101C1000EA57FF4F859194919093C0038093BF033F
:101C200060E087E00E94A7038091CC0381FD04C09F
:101C300061E087E00E94C20187E08093BA03E5EB90
:101C4000F0E0E491E093BB03E1EAF0E0E491F0E03E
:101C5000EE0FFF1FE057FF4F859194919093BD03C6
:101C60008093BC0308950E94750E08F481E00895E6
:101C7000E89409C097FB3EF4909580957095619526
:101C80007F4F8F4F9F4F9923A9F0F92F96E9BB27DC
:101C90009395F695879577956795B795F111F8CF58
:101CA000FAF4BB0F11F460FF1BC06F5F7F4F8F4FC3
:101CB0009F4F16C0882311F096E911C0772321F0B9
:101CC0009EE8872F762F05C0662371F096E8862F51
:101CD00070E060E02AF09A95660F771F881FDAF7A8
:101CE000880F9695879597F90895990F0008550FD5
:101CF000AA0BE0E8FEEF16161706E807F907C0F092
:101D000012161306E407F50798F0621B730B840B99
:101D1000950B39F40A2661F0232B242B252B21F473
:101D200008950A2609F4A140A6958FEF811D811D13
:101D300008950E94AC0E0C941D0F0E940F0F38F0F6
:101D40000E94160F20F0952311F00C94060F0C94AE
:101D50000C0F11240C94510F0E942E0F70F3959FBD
:101D6000C1F3950F50E0551F629FF001729FBB2792
:101D7000F00DB11D639FAA27F00DB11DAA1F649F2E
:101D80006627B00DA11D661F829F2227B00DA11DE1
:101D9000621F739FB00DA11D621F839FA00D611D67
:101DA000221F749F3327A00D611D231F849F600D88
:101DB000211D822F762F6A2F11249F5750409AF0B1
:101DC000F1F088234AF0EE0FFF1FBB1F661F771F3D
:101DD000881F91505040A9F79E3F510580F00C9408
:101DE000060F0C94510F5F3FE4F3983ED4F38695B1
:101DF00077956795B795F795E7959F5FC1F7FE2BA8
:101E0000880F911D9695879597F9089597F99F6783
:101E100080E870E060E008959FEF80EC0895002472
:101E20000A941616170618060906089500240A943F
:101E300012161306140605060895092E0394000CC5
:101E400011F4882352F0BB0F40F4BF2B11F460FF54
:101E500004C06F5F7F4F8F4F9F4F089557FD90587D
:101E6000440F551F59F05F3F71F04795880F97FB5E
:101E7000991F61F09F3F79F0879508951216130618
:101E80001406551FF2CF4695F1DF08C01616170647
:101E90001806991FF1CF869571056105089408957C
:101EA000E894BB2766277727CB0197F90895A1E22D
:101EB0001A2EAA1BBB1BFD010DC0AA1FBB1FEE1FC4
:101EC000FF1FA217B307E407F50720F0A21BB30B0F
:101ED000E40BF50B661F771F881F991F1A9469F78B
:101EE00060957095809590959B01AC01BD01CF01E7
:101EF00008955058BB27AA270E94910F0C941D0FDC
:101F00000E940F0F38F00E94160F20F039F49F3F07
:101F100019F426F40C940C0F0EF4E095E7FB0C94E6
:101F2000060FE92F0E942E0F58F3BA1762077307A6
:101F30008407950720F079F4A6F50C94500F0EF461
:101F4000E0950B2EBA2FA02D0B01B90190010C01C9
:101F5000CA01A0011124FF27591B99F0593F50F4E1
:101F6000503E68F11A16F040A22F232F342F442739
:101F7000585FF3CF469537952795A795F040539531
:101F8000C9F77EF41F16BA0B620B730B840BBAF001
:101F90009150A1F0FF0FBB1F661F771F881FC2F76C
:101FA0000EC0BA0F621F731F841F48F48795779580
:101FB0006795B795F7959E3F08F0B0CF9395880F3A
:101FC00008F09927EE0F9795879508950E94FA0FCC
:101FD0000C941D0F0E94160F58F00E940F0F40F036
:101FE00029F45F3F29F00C94060F51110C94510F06
:101FF0000C940C0F0E942E0F68F39923B1F3552314
:1020000091F3951B550BBB27AA276217730784070B
:1020100038F09F5F5F4F220F331F441FAA1FA9F3A1
:1020200035D00E2E3AF0E0E832D091505040E6958F
:10203000001CCAF72BD0FE2F29D0660F771F881FF0
:10204000BB1F261737074807AB07B0E809F0BB0BE3
:10205000802DBF01FF2793585F4F3AF09E3F5105F7
:1020600078F00C94060F0C94510F5F3FE4F3983E08
:10207000D4F3869577956795B795F7959F5FC9F7E0
:10208000880F911D9695879597F90895E1E0660F61
:10209000771F881FBB1F621773078407BA0720F0DA
:1020A000621B730B840BBA0BEE1F88F7E095089543
:1020B0000E94360F88F09F5798F0B92F9927B75193
:1020C000B0F0E1F0660F771F881F991F1AF0BA95DC
:1020D000C9F714C0B13091F00E94500FB1E00895DB
:1020E0000C94500F672F782F8827B85F39F0B93FCD
:1020F000CCF3869577956795B395D9F73EF490958F
:102100008095709561957F4F8F4F9F4F08950E94E6
:10211000750E08F48FEF08950E94750E880B990BC9
:10212000089597FB072E16F4009407D077FD09D089
:102130000E94A51007FC05D03EF4909581959F4F15
:102140000895709561957F4F0895AA1BBB1B51E1BF
:1021500007C0AA1FBB1FA617B70710F0A61BB70B17
:10216000881F991F5A95A9F780959095BC01CD01BC
:102170000895EE0FFF1F0590F491E02D099481E082
:1021800090E0F8940C94C41010E0C2E6D0E004C0D3
:10219000FE010E94B9102196C336D107C9F7F89401
:0221A000FFCF6F
:1021A2000100000000F500AC068D003C01BE009C61
:1021B20000B000000000004B031B037B03EF02137F
:1021C20003FF02F002000000003002AC067B032F86
:1021D2000284029C021702564D4450565F317C31F4
:1021E2005F564D4450560D0A0053797374656D2045
:1021F200426F6F74202D3E204F4B004D43333431DC
:102202003320496E697461696C202D3E204F4B006A
:10221200564D4450455F003A323A007C005F564DBD
:1022220044504500583A002C20593A002C205A3A82
:10223200004261743A200056202F200025004154AC
:102242002B474D520D0A006E616E00696E66006F7B
:0422520076660000AC
:00000001FF
